:200000000C9459000C9481000C9481000C9481000C9481000C9481000C9481000C94810000
:200020000C9481000C9481000C9481000C9481000C9481000C9481000C9481000C948100B8
:200040000C945C0F0C9481000C94CC0F0C94A60F0C9481000C9481000C9481000C94810020
:200060000C94FE0F0C94810000000000250028002B0004040404040404040202020202020E
:200080000303030303030102040810204080010204081020010204081020000000080002C7
:2000A00001000003040700000000000000001D11341511241FBECFEFD8E0DEBFCDBF12E017
:2000C000A0E0B1E0EEE1F2E302C005900D92A63DB107D9F724E0A6EDB2E001C01D92A03899
:2000E000B207E1F710E0C8E5D0E004C02197FE010E94C817C735D107C9F70E9464110C94DB
:2001000002190C94000090E0FC01E656FF4F2491FC01EA57FF4F3491FC01EE58FF4FE49121
:20012000EE23C9F0222339F0233001F1A8F4213019F1223029F1F0E0EE0FFF1FE859FF4F65
:20014000A591B4918FB7F894EC91611126C030953E233C938FBF08952730A9F02830C9F09C
:20016000243049F7809180008F7D03C0809180008F7780938000DFCF84B58F7784BDDBCF89
:2001800084B58F7DFBCF8091B0008F778093B000D2CF8091B0008F7DF9CF3E2BDACF8230CC
:2001A000910538F0880F991F880F991F05970197F1F708953FB7F8948091450390914603E5
:2001C000A0914703B091480326B5A89B05C02F3F19F00196A11DB11D3FBFBA2FA92F982F15
:2001E0008827BC01CD01620F711D811D911D42E0660F771F881F991F4A95D1F708958F9289
:200200009F92AF92BF92CF92DF92EF92FF924B015C010E94DA006B017C010E94DA006C1928
:200220007D098E099F09683E734081059105A8F321E0821A9108A108B10888EEC80E83E0A2
:20024000D81EE11CF11C81149104A104B10429F7FF90EF90DF90CF90BF90AF909F908F9042
:20026000089508950895AF92BF92CF92DF92EF92FF920F931F93CF93DF936C017B018B0194
:20028000040F151FEB015E01AE18BF08C017D10759F06991D601ED91FC910190F081E02D5C
:2002A000C6010995892B79F7C501DF91CF911F910F91FF90EF90DF90CF90BF90AF900895C8
:2002C000FC01538D448D252F30E0842F90E0821B930B541710F0CF96089501970895FC010F
:2002E000918D828D981761F0A28DAE0FBF2FB11D5D968C91928D9F5F9F73928F90E00895BC
:200300008FEF9FEF0895FC01918D828D981731F0828DE80FF11D858D90E008958FEF9FEFFB
:200320000895FC01918D228D892F90E0805C9F4F821B91098F739927089589E993E00E9447
:20034000910121E0892B09F420E0822F089580E090E0892B29F00E949D0181110C940000FC
:200360000895FC01A48DA80FB92FB11DA35ABF4F2C91848D90E001968F739927848FA68961
:20038000B7892C93A089B1898C91837080648C93938D848D981306C00288F389E02D808132
:2003A0008F7D80830895EF92FF920F931F93CF93DF93EC0181E0888F9B8D8C8D98131AC02C
:2003C000E889F989808185FF15C09FB7F894EE89FF896083E889F98980818370806480833E
:2003E0009FBF81E090E0DF91CF911F910F91FF90EF900895F62E0B8D10E00F5F1F4F0F73F9
:00000001FF
