:200000000C9459000C9481000C9481000C9481000C9481000C9481000C9481000C94810000
:200020000C9481000C9481000C9481000C9481000C9481000C9481000C9481000C948100B8
:200040000C945C0F0C9481000C94CC0F0C94A60F0C9481000C9481000C9481000C94810020
:200060000C94FE0F0C94810000000000250028002B0004040404040404040202020202020E
:200080000303030303030102040810204080010204081020010204081020000000080002C7
:2000A00001000003040700000000000000001D11341511241FBECFEFD8E0DEBFCDBF12E017
:2000C000A0E0B1E0EEE1F2E302C005900D92A63DB107D9F724E0A6EDB2E001C01D92A03899
:2000E000B207E1F710E0C8E5D0E004C02197FE010E94C817C735D107C9F70E9464110C94DB
:2001000002190C94000090E0FC01E656FF4F2491FC01EA57FF4F3491FC01EE58FF4FE49121
:20012000EE23C9F0222339F0233001F1A8F4213019F1223029F1F0E0EE0FFF1FE859FF4F65
:20014000A591B4918FB7F894EC91611126C030953E233C938FBF08952730A9F02830C9F09C
:20016000243049F7809180008F7D03C0809180008F7780938000DFCF84B58F7784BDDBCF89
:2001800084B58F7DFBCF8091B0008F778093B000D2CF8091B0008F7DF9CF3E2BDACF8230CC
:2001A000910538F0880F991F880F991F05970197F1F708953FB7F8948091450390914603E5
:2001C000A0914703B091480326B5A89B05C02F3F19F00196A11DB11D3FBFBA2FA92F982F15
:2001E0008827BC01CD01620F711D811D911D42E0660F771F881F991F4A95D1F708958F9289
:200200009F92AF92BF92CF92DF92EF92FF924B015C010E94DA006B017C010E94DA006C1928
:200220007D098E099F09683E734081059105A8F321E0821A9108A108B10888EEC80E83E0A2
:20024000D81EE11CF11C81149104A104B10429F7FF90EF90DF90CF90BF90AF909F908F9042
:20026000089508950895AF92BF92CF92DF92EF92FF920F931F93CF93DF936C017B018B0194
:20028000040F151FEB015E01AE18BF08C017D10759F06991D601ED91FC910190F081E02D5C
:2002A000C6010995892B79F7C501DF91CF911F910F91FF90EF90DF90CF90BF90AF900895C8
:2002C000FC01538D448D252F30E0842F90E0821B930B541710F0CF96089501970895FC010F
:2002E000918D828D981761F0A28DAE0FBF2FB11D5D968C91928D9F5F9F73928F90E00895BC
:200300008FEF9FEF0895FC01918D828D981731F0828DE80FF11D858D90E008958FEF9FEFFB
:200320000895FC01918D228D892F90E0805C9F4F821B91098F739927089589E993E00E9447
:20034000910121E0892B09F420E0822F089580E090E0892B29F00E949D0181110C940000FC
:200360000895FC01A48DA80FB92FB11DA35ABF4F2C91848D90E001968F739927848FA68961
:20038000B7892C93A089B1898C91837080648C93938D848D981306C00288F389E02D808132
:2003A0008F7D80830895EF92FF920F931F93CF93DF93EC0181E0888F9B8D8C8D98131AC02C
:2003C000E889F989808185FF15C09FB7F894EE89FF896083E889F98980818370806480833E
:2003E0009FBF81E090E0DF91CF911F910F91FF90EF900895F62E0B8D10E00F5F1F4F0F73F9
:200400001127E02E8C8D8E110CC00FB607FCFACFE889F989808185FFF5CFCE010E94B10122
:20042000F1CFEB8DEC0FFD2FF11DE35AFF4FF0829FB7F8940B8FEA89FB8980818062CFCF5E
:20044000CF93DF93EC01888D8823B9F0AA89BB89E889F9898C9185FD03C0808186FD0DC055
:200460000FB607FCF7CF8C9185FFF2CF808185FFEDCFCE010E94B101E9CFDF91CF91089503
:2004800020911703260F3327331F21323105ECF420916F03FC0190E080E0243069F082E048
:2004A0000895A09117032191AC0149505D4FA40FB52FB11D2C930196861798F380911703A2
:2004C000680F6093170380E0089581E0089510926F0381E080936E031092490361E082E112
:2004E0000E94830061E083E10E948300E9EBF0E080818E7F808380818D7F808388E48093C9
:20050000B80085E48093BC000895CF93DF9391E09093F6028823B9F0C091B800D091BA0076
:200520008091BC008A7B8093BC0060E082E10E94830060E083E10E9483000E946702D0931B
:20054000BA00C093B800DF91CF9108958F929F92AF92BF92CF92DF92EF92FF920F931F934D
:20056000CF93DF93D0919803D13208F0D7C0182FC09197030E94DA006B017C0180916F03FF
:2005800081116BC082E080936F0310936E038FEF80936D0310926C03D0936B03A7E7B3E09F
:2005A000EBE4F3E080E0D81391C010924A0380914A03CC0FC82BC0934A0380914903813034
:2005C00009F088C0109249030E94DA006B017C0180914A038093BB00809171039091720340
:2005E000A0917303B0917403892B8A2B8B2BA1F00E94DA000091710310917203209173032E
:20060000309174036C197D098E099F09061717072807390708F442C08091BC0083FDD8CFBC
:2006200085EC8093BC000E94DA006B017C0180916F03823009F450C080916D038F3F09F487
:200640006FC080916D03803209F46CC080916D03803309F469C084E026C0809171039091C5
:200660007203A0917303B0917403892B8A2B8B2B09F484CF0E94DA008090710390907203A2
:20068000A0907303B09074036C197D098E099F0986169706A806B90608F070CF8091700352
:2006A0000E94850285E0109276031092980310927503DF91CF911F910F91FF90EF90DF909D
:2006C000CF90BF90AF909F908F9008959D9191938F5F69CF85EEA5CF8091710390917203C8
:2006E000A0917303B0917403892B8A2B8B2B09F49ECF0E94DA0000917103109172032091CA
:200700007303309174036C197D098E099F09061717072807390708F08ACFC0CF81E0C3CF64
:2007200080E0C1CF82E0BFCF83E0BDCF0895E0913F0380913E03E81730F4F0E0EA52FD4FCD
:20074000808190E008958FEF9FEF089590913F0380913E032FEF3FEF981748F4E92FF0E00E
:20076000EA52FD4F208130E09F5F90933F03C901089580913E0390913F03891B990B0895DC
:20078000CF92DF92EF92FF920F931F93CF93DF937C01CB018A0120917503222389F0EB01A6
:2007A0006B01C40ED51ECC15DD0569F06991D701ED91FC910190F081E02DC7010995F3CFD8
:2007C000642F0E944002C801DF91CF911F910F91FF90EF90DF90CF900895CF93DF931F92BB
:2007E000CDB7DEB76983209175032223F9F020919803203258F021E030E0FC01338322834E
:2008000090E080E00F90DF91CF91089580917603E82FF0E0E958FC4F998190838F5F8093D1
:2008200076038093980381E090E0ECCF61E0CE0101960E944002F7CF90E080E00895FC014A
:2008400083858F3F19F061E00C9483000895FC0180819181892B39F0A281B3819C911196A0
:200860008C919CBD8DBD83858F3F19F060E00C9483000895AF92BF92CF92DF92EF92FF9263
:200880000F931F93CF93DF93EC0188819981892B89F06EBD0DB407FEFDCFBEB48B2DDF919C
:2008A000CF911F910F91FF90EF90DF90CF90BF90AF9008958885998511E0892B09F010E8C0
:2008C000AA24A394862F812309F0A12C062F2C813D814E815F8160E271EA87E090E00E948F
:2008E000A617F22EB02EE12CC22ED12CFF2019F0C6010E94CF008A85877F09F042C08D85C1
:200900008F3F89F0902F912381E009F480E08A1551F0EF85F8898F89992369F19081892B97
:200920008083AA24A394E989FA898081998D892B8083FF2019F0C6010E94CF008E858F3F9B
:2009400039F0EB89FC898081988D892309F0E12AE989FA899081898D8095892380838E85AC
:200960008F3F09F0BE2C88859985892BB9F5110F1111BCCF93CF9081809589238083A12C68
:20098000D2CFE989FA898081998D892B8083FF2019F0C6010E94CF008D858F3F49F0EF85F6
:2009A000F8898F89902F9123A9F09081892B8083E989FA899081898D8095892380838E85D7
:2009C0008F3F69F2EB89FC898081988D892339F2E12AC5CF908180958923E9CF1695C8CF8D
:2009E0008F929F92AF92BF92CF92DF92EF92FF920F931F93CF93DF937C014B016A01B22EF3
:200A0000A32E0E942704E401C80CD91CCC15DD0569F4CB2DDA2D0C0F1D1FC017D10759F01C
:200A20006FEFC7010E943A048993F7CF6991C7010E943A04EBCFC7010E941F0481E0DF9114
:200A4000CF911F910F91FF90EF90DF90CF90BF90AF909F908F9008958F929F92AF92BF92AD
:200A6000CF92DF92EF92FF920F931F93CF93DF937C01B62EA72E6A0149010E942704E401CD
:200A8000080D191DC017D10761F4CB2DDA2DCC0EDD1ECC15DD0551F06991C7010E943A048D
:200AA000F8CF6991C7010E943A04ECCFC7010E941F0481E0DF91CF911F910F91FF90EF90F6
:200AC000DF90CF90BF90AF909F908F9008951F93CF93DF93EA01122FDC0111968D919C914E
:200AE000DC01ED91FC910280F381E02D0995C817D90729F4812F0E94A60291E0811190E024
:200B0000892FDF91CF911F910895CF93DF93EC018B818823A1F0888191E0909375038093CF
:200B20009703109276031092980381E00E94A60291E0811190E0892FDF91CF9108951092DE
:200B40003F0310923E0310927603109298030E94670281E391E090933B0380933A0382E322
:200B600091E090933D0380933C0381E08B83CE010E948505982F8111CECFDDCFAF92BF92B1
:200B8000CF92DF92EF92FF920F931F93CF93DF9300D0CDB7DEB7DC01211103C018962C9123
:200BA0001897253008F043C01F964D935D936D937C93529790E080E0E22EF12C8E159F0575
:200BC000B4F41A962C911A9721110AC0FD01E80FF91F4387452F562F672F77270196EECFFB
:200BE000F701E81BF90BEA0FFB1F4287F3CF6D018BE0C80ED11C16969C91169717968C916C
:200C0000179799838A83AD90BC901197A114B10409F441C019960C9110E098012E0D3F1DF8
:200C2000D50114968D919C918217930710F480E016C0F50181819281208131E03093750384
:200C40002093970310927603109298030115110599F421E0A701B601C5010E9467050F9063
:200C60000F90DF91CF911F910F91FF90EF90DF90CF90BF90AF900895DC01ED91FC91028044
:200C8000F381E02DA801BE016F5F7F4F09950817190769F6DECF1296ED91FC9113973097C2
:200CA00031F214962D913C91159719960C9110E02330310571F48E7F89839A830F5F1F4FF4
:200CC0009E012F5F3F4FA701B601CF010E942C05C6CF2115310519F49F779983F1CF223005
:200CE000310511F49068F9CF2130310549F79F779064F3CF08950895FC0101900020E9F79E
:200D00003197AF01481B590BBC0189E993E00C9433018F929F92AF92BF920F931F93CF9384
:200D2000DF93CDB7DEB7A1970FB6F894DEBF0FBECDBF19A2423008F44AE08E010F5D1F4FED
:200D4000842E912CB12CA12CA50194010E94A617E62FB901CA01EA30F4F4E05DD801EE93AD
:200D60008D01232B242B252B79F790E080E0109719F0CD010E947C06A1960FB6F894DEBFF1
:200D80000FBECDBFDF91CF911F910F91BF90AF909F908F900895E95CE1CFCF93DF930E94F6
:200DA0007C06EC018AE591E00E947C068C0F9D1FDF91CF9108950C947C064F925F926F9207
:200DC0007F928F929F92AF92BF92CF92DF92EF92FF920F931F93CF936B017C01742EAC014C
:200DE0009B010E94A117882399F08DE591E0CF911F910F91FF90EF90DF90CF90BF90AF90CC
:200E00009F908F907F906F905F904F900C947C0646015701E894B7F82FEF3FEF4FE75FE7F4
:200E2000C501B4010E94A11781110DC02FEF3FEF4FE75FE7C501B4010E94D71518161CF46F
:200E400081E691E0D4CF2FEF3FEF4FE75FE4C701B6010E942F1718161CF485E691E0C7CF3B
:200E60002FEF3FEF4FE75FECC701B6010E94D71587FDF3CF20E030E0A901C701B6010E9477
:200E8000D71510E000E087FF0AC06DE289E993E00E94D3018C01F7FAF094F7F8F094C0E087
:200EA00060E070E080E09FE37C1641F020E030E040E251E40E94DC15CF5FF6CFA7019601D1
:200EC0000E946B152B013C010E944E164B015C014AE00E9489067C01E00EF11ECC23C1F162
:200EE000C501B4010E947D169B01AC01C301B2010E946A154B015C016EE289E993E00E94E1
:200F0000D301E80EF91EC15018F120E030E040E251E4C501B4010E9434172B013C010E94FC
:200F20004E164B01B12CA12C4AE0C501B4010E948906E80EF91EC501B4010E947D169B0128
:200F4000AC01C301B2010E946A154B015C01DBCFC701CF911F910F91FF90EF90DF90CF90A5
:200F6000BF90AF909F908F907F906F905F904F9008952F923F924F925F926F927F928F9285
:200F80009F92AF92BF92CF92DF92EF92FF920F931F93CF93DF9300D000D0CDB7DEB7FC01CC
:200FA0004B01042F9681878199838A83208031802114310409F439C1418550E0D101149646
:200FC0008D919C9184179507C8F4B12C8B2D0F900F900F900F90DF91CF911F910F91FF9013
:200FE000EF90DF90CF90BF90AF909F908F907F906F905F904F903F902F900895F1018081CE
:2010000091E09093750380939703109276031092980320E0BE016F5F7F4FC1010E94670594
:20102000B82E882391F2802F90E09C838B83D12CC12C01E0AB81BC81CA16DB0638F6F1013B
:20104000848195817D01EC18FD088E159F0508F47C01D101AC900E94DA002B013C0180912A
:201060006F03811172C01E2D113208F010E200936F0321E08B819C818E199F09C816D90687
:2010800008F420E020936E03BFEFB0936D0310926C038FEF810F80936B0300934A0380913E
:2010A0004A03AA0CA82AA0924A0380914903813009F092C0109249030E94DA002B013C01B0
:2010C00080914A038093BB008091710390917203A0917303B0917403892B8A2B8B2BA1F0BA
:2010E0000E94DA0020917103309172034091730350917403641975098609970926173707D5
:201100004807590708F442C08091BC0083FDD8CFE5ECE093BC000E94DA002B013C01809138
:201120006F03813009F45CC080916C03811710F410916C03ABE4B3E0E6EDF2E080E0811788
:2011400051F19D9191938F5FFACF8091710390917203A0917303B0917403892B8A2B8B2BAB
:2011600009F47DCF0E94DA0020917103309172034091730350917403641975098609970986
:20118000261737074807590708F069CF809170030E94850210E010923F0310933E031E155D
:2011A0001F0409F012CF34016C0C7D1C2301C201861997098E159F05A8F5D10111968D914B
:2011C0009C91DC01ED91FC910284F385E02D0995F20181932F01EBCFF5EEF093BC009BCFD4
:2011E0008091710390917203A0917303B0917403892B8A2B8B2B09F492CF0E94DA002091CB
:2012000071033091720340917303509174036419750986099709261737074807590708F039
:201220007ECFB4CFCE0CDF1C05CFA281B381109709F4CBCE2481358110E0418550E023300D
:20124000310571F4816089839A834F5F5F4F9401BE016F5F7F4FCD010E94F004B82EB6CECF
:201260002115310519F490689983F1CF2230310511F49F77F9CF2130310549F7906CF4CF30
:20128000CF93DF93EC01BC01655F7F4F48850E94B907882301F1488550E030E020E060E025
:2012A00070E0CB0124173507CCF4982F872F762F6627EA85E1110AC0FA01E21BF30BEC0F10
:2012C000FD1FE2856E2B2F5F3F4FECCFFE01E20FF31FE385F7CF6FEF7FEFCB01DF91CF9183
:2012E00008958F929F92AF92BF92CF92DF92EF92FF920F931F93CF93DF93EC014A015B01CD
:20130000888199810E9440092A8101E010E002C0000F111F2A95E2F701501109012E000C04
:20132000220B330BAB81680179010A2E04C0CC0CDD1CEE1CFF1C0A94D2F7C094D094E094AE
:20134000F094C622D722E822F922E881F981B901A801482159216A217B2104C0440F551F28
:20136000661F771FAA95D2F74C295D296E297F292085CF01DF91CF911F910F91FF90EF906D
:20138000DF90CF90BF90AF909F908F900C94BE050F931F93CF93DF93EC01888199810E9466
:2013A0004009AB01BC012A8181E090E002C0880F991F2A95E2F70197092E000CAA0BBB0B00
:2013C0002B8104C076956795579547952A95D2F78C019D010423152326233723C901B80196
:2013E000DF91CF911F910F910895AF92BF92CF92DF92EF92FF920F931F93CF93DF93CDB70E
:20140000DEB7E8970FB6F894DEBF0FBECDBF8C01FC01868D978D1BA21CA21DA21EA29D8B8E
:201420008C8B1F8A1E8AFF24F394FD8E8BE390E09B8F8A8F1E8E8EE08C8F4EE0BE01695D06
:201440007F4FCE0144960E94B9078FA198A5982789279827F80195A784A789A59AA598278C
:201460008927982797A786A78BA59CA598278927982791AB80AB6DA57EA57627672776278F
:2014800073AB62AB8FA598A998278927982795AB84AB89A99AA998278927982797AB86ABF9
:2014A0008BA99CA998278927982791AF80AF072E000C880B990B0E947F1620E030E04AEA23
:2014C00053E40E94DC1528EB3EE142E152E40E946B15F8016283738384839583868D978D6B
:2014E000188A198A1A8A1B8A9A8389831C821B82FA868CE190E098878F831B86F986CE017D
:2015000001965C019EAB8DAB82E08FAB83E088AFCE01C5960E94C809C12CD12CE12CE5E4C3
:20152000FE2E63307105E1F06230710599F06130710509F4D6C0C12CD12CF0E8EF2EFFE3B9
:20154000FF2E672B69F4C12CD12C50E8E52E56E4F52E06C0C12CD12C70E8E72E75E4F72E42
:20156000F80164A575A5072E000C880B990B0E947F16A70196010E94DC15F80166837783F2
:201580008087918766A577A5072E000C880B990B0E947F16A70196010E94DC15F8016287A2
:2015A00073878487958760A971A9072E000C880B990B0E947F16A70196010E94DC15F8016D
:2015C00066877787808B918B868D978D188A198A1A8A1B8A9A8389831C821B8281E08A875E
:2015E0002BE130E038872F831B868987BEAAADAA82E08FAB83E088AFCE01C5960E94C8091B
:20160000C12CD12C33E0E32E33E4F32E6115710519F1C12CD12C23E8E22E22E4F22E6130D2
:201620007105D1F093E3C92EDC2C93E0E92E92E4F92E6230710581F0C12CD12C40E8E42E3A
:201640004FE3F42E6330710539F483E3C82EDC2C83E8E82E81E4F82EF80164A975A9072E37
:20166000000C880B990B0E947F16A70196010E94DC15F801628B738B848B958B66A977A9DC
:20168000072E000C880B990B0E947F16A70196010E94DC15F801668B778B808F918F60ADA1
:2016A00071AD072E000C880B990B0E947F16A70196010E94DC15F801628F738F848F958F68
:2016C000E8960FB6F894DEBF0FBECDBFDF91CF911F910F91FF90EF90DF90CF90BF90AF90BB
:2016E0000895C12CD12CE12C66E4F62E39CF0F931F93CF93DF938C01EB01DC0114968D919A
:201700009C910E94F509D8011496ED91FC918FB7F894409141035091420360914303709129
:2017200044038FBF9E012C5F3F4F80E2D9011D928A95E9F784E290E0A0E0B0E08883998365
:20174000AA83BB8382A593A5B0E0A0E08C839D83AE83BF838DE090E0A0E0B0E088879987F1
:20176000AA87BB87488B598B6A8B7B8B82819381A481B5818C8B9D8BAE8BBF8B81E0DF913F
:20178000CF911F910F910895CF92DF92EF92FF920F931F93CF93DF938C01EB01DC011496F0
:2017A0008D919C910E94F509F801048115818FB7F894C0904103D0904203E0904303F090E9
:2017C00044038FBFFE01349680E2DF011D928A95E9F741E050E060E070E0488359836A8346
:2017E0007B83F80186A197A1B0E0A0E08C839D83AE83BF83488759876A877B87C88AD98A8A
:20180000EA8AFB8A2AE038EE4CE151E466817781808591850E9434176C8B7D8B8E8B9F8B14
:201820002AE038EE4CE151E4D8011A966D917D918D919C911D970E943417688F798F8A8F7D
:201840009B8F2AE038EE4CE151E4F80166857785808991890E9434176C8F7D8F8E8F9F8F8A
:2018600081E0DF91CF911F910F91FF90EF90DF90CF9008950F931F93CF93DF938C01EB01CD
:20188000DC0114968D919C910E94F509F801048115818FB7F89440914103509142036091C4
:2018A0004303709144038FBFFE01349680E2DF011D928A95E9F781E090E0A0E0B0E08883A7
:2018C0009983AA83BB83F80180A591A5B0E0A0E08C839D83AE83BF8384E090E0A0E0B0E097
:2018E00088879987AA87BB87488B598B6A8B7B8B25E33AEF4EE85CE36289738984899589DC
:201900000E9434176C8B7D8B8E8B9F8B25E33AEF4EE85CE3D80156966D917D918D919C91D6
:2019200059970E943417688F798F8A8F9B8F25E33AEF4EE85CE3F801628D738D848D958DC7
:201940000E9434176C8F7D8F8E8F9F8F81E0DF91CF911F910F9108950C946A180C946A18E6
:201960000C946A189F92AF92BF92CF92DF92EF92FF920F931F93CF93DF93CDB7DEB7AA971C
:201980000FB6F894DEBF0FBECDBF8C01DC0197965C934E939697CA01019699969C938E938B
:2019A00098974E5F5F4F9B965C934E939A975E962D913C911BA21CA21DA21EA23D8B2C8B73
:2019C0001F8A1E8A81E08D8F4BE650E05B8F4A8F1E8E8C8F188A198A1A8A1B8A3A83298357
:2019E0001C821B828A8728E630E038872F831B8689875E01B4E1AB0EB11CB8A6AFA289A702
:201A000087E08AA741E050E060E070E0CE0187960E947109CE0187960E94C80961307105DF
:201A20008105910539F461E070E080E090E00E94FF00F0CF64E670E080E090E00E94FF0091
:201A400020E047E050E060E070E0FE0131966F01CF010E94BE0564E670E080E090E00E9428
:201A6000FF00D8015E968D919C91188A198A1A8A1B8A9A8389831C821B82FF24F394FA8633
:201A800089E190E098878F831B86F98620E040E050E0BA01C6010E94BE05F801868D978DB4
:201AA000188A198A1A8A1B8A9A8389831C821B82FA868AE190E098878F831B86F986DD8A21
:201AC000CC8A83E0E82EEE8A1F8A40E050E0BA01C5010E947109D8015E968D919C91188A6F
:201AE000198A1A8A1B8A9A8389831C821B82FA868BE190E098878F831B86F986DD8ACC8A2C
:201B000092E0992E9E8AEF8A41E050E060E070E0C5010E947109F801868D978D188A198AB3
:201B20001A8A1B8A9A8389831C821B82FA868CE190E098878F831B86F986DD8ACC8A9E8A65
:201B4000EF8A40E050E0BA01C5010E947109D8015E968D919C91188A198A1A8A1B8A9A835C
:201B600089831C821B82FA868BE690E098878F831B86F98620E041E050E060E070E0C601C4
:201B80000E94BE0564E670E080E090E00E94FF00F80180A191A1009739F0DC01ED91FC91E1
:201BA0000280F381E02D0995F80182A193A1009739F0DC01ED91FC910280F381E02D0995EB
:201BC000F80184A195A1009739F0DC01ED91FC910280F381E02D099586E090E00E94CE170B
:201BE000FC0186E291E09183808380E596E09383828315830483D8019196FC93EE939097AC
:201C000086E090E00E94CE17FC0188E191E09183808381E596E09383828315830483D8018A
:201C20009396FC93EE93929786E090E00E94CE17FC018AE091E09183808382E596E0938303
:201C4000828315830483D8019596FC93EE93949781E0AA960FB6F894DEBF0FBECDBFDF91C9
:201C6000CF911F910F91FF90EF90DF90CF90BF90AF909F90089585ED8093BC0080917103B8
:201C800090917203A0917303B09174030796A11DB11D23E0B695A795979587952A95D1F7CD
:201CA0002091BC0024FD03C010926F03089540917103509172036091730370917403452B38
:201CC000462B472B69F30097A105B10541F02AE22A95F1F700C00197A109B109E1CF809171
:201CE00070030C9485020F931F93CF93DF938C01EB0188E2FB0111928A95E9F74BE050E046
:201D000069E671E0CE010E94F3181B8681E090E0A0E0B0E08C879D87AE87BF87F801828177
:201D20009381092E000CAA0BBB0B888B998BAA8BBB8B8DE090E0A0E0B0E08C8B9D8BAE8BBA
:201D4000BF8B1CA21DA21EA21FA280E090E0A0E2B2EC8C8F9D8FAE8FBF8F80E090E0A2ED1A
:201D6000B2E4888F998FAA8FBB8F84E09DEAA0E4BBE388A399A3AAA3BBA3DF91CF911F916C
:201D80000F9108950F931F93CF93DF938C01EB0188E2FB0111928A95E9F74BE050E063E7B8
:201DA00071E0CE010E94F3181B8641E050E060E070E04C875D876E877F87F8018281938112
:201DC000092E000CAA0BBB0B888B998BAA8BBB8B4C8B5D8B6E8B7F8B1CA21DA21EA21FA2D3
:201DE0008AE098EEACE1B3EC8C8F9D8FAE8FBF8F8AE098EEACE1B3E4888F998FAA8FBB8F1F
:201E000083E29BEDA9E7BDE388A399A3AAA3BBA3DF91CF911F910F9108950F931F93CF9320
:201E2000DF938C01EB0188E2FB0111928A95E9F74BE050E06DE771E0CE010E94F3181B8692
:201E400081E090E0A0E0B0E08C879D87AE87BF87F80182819381092E000CAA0BBB0B888B0E
:201E6000998BAA8BBB8B84E090E0A0E0B0E08C8B9D8BAE8BBF8B1CA21DA21EA21FA287EDAB
:201E800093EAABE0B2EC8C8F9D8FAE8FBF8F87ED93EAABE0B2E4888F998FAA8FBB8F8AE983
:201EA0009BEAABE0B9E388A399A3AAA3BBA3DF91CF911F910F9108951F920F920FB60F92EF
:201EC00011242F933F938F939F93AF93BF938091410390914203A0914303B09144033091D6
:201EE000400323E0230F2D3758F50196A11DB11D209340038093410390934203A093430368
:201F0000B09344038091450390914603A0914703B09148030196A11DB11D809345039093CC
:201F20004603A0934703B0934803BF91AF919F918F913F912F910F900FBE0F901F90189576
:201F400026E8230F0296A11DB11DD2CF1F920F920FB60F9211242F933F934F935F936F9325
:201F60007F938F939F93AF93BF93EF93FF9389E993E00E94B101FF91EF91BF91AF919F914A
:201F80008F917F916F915F914F913F912F910F900FBE0F901F9018951F920F920FB60F9292
:201FA00011242F938F939F93EF93FF93E091A903F091AA038081E091AF03F091B00382FDA0
:201FC0001BC090818091B2038F5F8F732091B303821741F0E091B203F0E0E756FC4F958F8C
:201FE0008093B203FF91EF919F918F912F910F900FBE0F901F9018958081F4CF1F920F927C
:202000000FB60F9211242F933F934F935F936F937F938F939F93AF93BF93EF93FF9380919C
:20202000B900887F803609F44AC0F0F5883209F4A7C018F5803109F49BC0B8F4882309F4B6
:20204000F9C0883009F494C0FF91EF91BF91AF919F918F917F916F915F914F913F912F915E
:202060000F900FBE0F901F901895883109F488C0803251F780936D0314C0803409F49DC09C
:2020800040F48033B9F38833F9F680936D0385ECB0C0803509F485C0883509F496C08834DC
:2020A00099F60E943B0ED0CF883909F48CC038F5883729F050F4883611F0803729F683E0BC
:2020C00080936F031092390357C0883809F47BC0803919F0803809F0B7CF80913903803296
:2020E00008F071C0E091390381E08E0F809339038091BB00F0E0E75EFC4F80833DC0803BD6
:2021000039F0E0F4803A09F479C0883A09F09CCF84E080936F031092180310921703E091D9
:202120003A03F0913B0309958091170381110FC081E0809317031092F70209C0803C09F4CE
:20214000A6CF883C09F4A3CF883B09F07DCFE091180381E08E0F80931803F0E0E950FD4FC2
:2021600080818093BB00909118038091170329C080914A038093BB0085EC8093BC0064CFA1
:2021800090916C0380916B03981758F5E0916C0381E08E0F80936C03F0E0E55BFC4F808178
:2021A000E9CFE0916C0381E08E0F80936C038091BB00F0E0E55BFC4F808390916C0380913C
:2021C0006B039817C8F285E8D8CFE0916C0381E08E0F80936C038091BB00F0E0E55BFC4F8D
:2021E000808380916E0381115CCF81E08093490384EA8093BC0010926F0326CF85EC809313
:20220000BC0010926F0380913903803230F4E0913903F0E0E75EFC4F10826091390370E0AF
:20222000E0913C03F0913D0389E193E00995109239030ACF10926D0334CFE9E9F3E01382AC
:20224000128288EE93E0A0E0B0E084839583A683B78324E331E03183208325EC30E0358723
:20226000248724EC30E03787268720EC30E0318B208B21EC30E0338B228B22EC30E0358B3F
:20228000248B26EC30E0378B268B118E128E138E148EE6E3F4E01382128284839583A6836A
:2022A000B78386E491E091838083E2E4F4E088E591E091838083178E168E11A210A213A200
:2022C00012A215A214A20895CF93DF93CDB7DEB7C257D1090FB6F894DEBF0FBECDBF78940D
:2022E00084B5826084BD84B5816084BD85B5826085BD85B5816085BD80916E0081608093F9
:202300006E00109281008091810082608093810080918100816080938100809180008160AB
:20232000809380008091B10084608093B1008091B00081608093B00080917A0084608093B9
:202340007A0080917A00826080937A0080917A00816080937A0080917A00806880937A0010
:202360001092C100E091A903F091AA0382E08083E091A503F091A6031082E091A703F091D9
:20238000A80380E180831092B103E091AD03F091AE0386E08083E091AB03F091AC038081CC
:2023A00080618083E091AB03F091AC03808188608083E091AB03F091AC03808180688083C3
:2023C000E091AB03F091AC0380818F7D808387E891E00E94CD0680916004909161040097B7
:2023E00011F00E946A1886E090E00E94CE17FC0188E6808386E394E092838183138280E200
:2024000090E095838483F0936104E093600405E0A1E3CA2EA1E0DA2EB2E3AB2EB1E0BB2E9C
:2024200011E0E0906004F090610410923F0310923E0310927603109298030E946702D09266
:202440003B03C0923A03B0923D03A0923C03D70113961C93C7010E9485058111E6C16AE015
:2024600070E080E090E00E94FF000150D1F68EE991E00E94CD066AE070E080E090E00E941A
:20248000FF00F9CF86EE91E00E94CD0648C28BEE91E0FACF80EF91E0F7CF85EF91E0F4CF10
:2024A0008FE092E00E94CD068EC28CE192E0FACF89E292E0F7CF87E392E0F4CF8FE592E0A6
:2024C0000E94CD068CE591E00E94CD0664E670E080E090E00E94FF00FE013D96AF96FFAF60
:2024E000EEAFAF9718E189E490E08C0F9D1F0C96E3969FAF8EAFE397C12CD12C7601C394F4
:20250000DE01D196E196BFAFAEAFE19794E0492E512C612C712C20E0222E20E0322E8FB733
:20252000F8948090410390904203A0904303B09044038FBF82E494E00E94F509AF96EEADB1
:20254000FFADAF97812F11928A95E9F784E290E0A0E0B0E089839A83AB83BC8380916C043A
:2025600090916D04B0E0A0E08D839E83AF83B8878DE090E0A0E0B0E089879A87AB87BC8784
:20258000898A9A8AAB8ABC8A8091440490914504A0914604B09147048D8B9E8BAF8BB88FFD
:2025A000E396AEADBFADE397E12F1D92EA95E9F72D96CCAEDDAEEEAEFFAE2D9780916804F1
:2025C00090916904B0E0A0E061968CAF9DAFAEAFBFAF61976596CCAEDDAEEEAEFFAE6597D7
:2025E0006D968CAE9DAEAEAEBFAE6D972AE038EE4CE151E4609148047091490480914A040A
:2026000090914B040E943417A1966CAF7DAF8EAF9FAFA1972AE038EE4CE151E460914C0449
:2026200070914D0480914E0490914F040E943417A5966CAF7DAF8EAF9FAFA5972AE038EE0B
:202640004CE151E4609150047091510480915204909153040E943417A9966CAF7DAF8EAFEE
:202660009FAFA997E196AEADBFADE197E12F1D92EA95E9F7CDA2DEA2EFA2F8A680916A045B
:2026800090916B04B0E0A0E089A79AA7ABA7BCA74DA65EA66FA678AA8DAA9EAAAFAAB8AE08
:2026A00025E33AEF4EE85CE3609154047091550480915604909157040E94341769AF7AAFBC
:2026C0008BAF9CAF25E33AEF4EE85CE3609158047091590480915A0490915B040E94341748
:2026E00021966CAF7DAF8EAF9FAF219725E33AEF4EE85CE360915C0470915D0480915E04CD
:2027000090915F040E94341725966CAF7DAF8EAF9FAF25978AE892E00E94DB06A1966CAD48
:202720007DAD8EAD9FADA19742E00E94DD068BE992E00E94DB06A5966CAD7DAD8EAD9FAD9B
:20274000A59742E00E94DD0681EA92E00E94DB06A9966CAD7DAD8EAD9FADA99742E00E9429
:20276000DD0687EA92E00E94CD068EEA92E00E94DB0669AD7AAD8BAD9CAD42E00E94DD064C
:202780008BE992E00E94DB0621966CAD7DAD8EAD9FAD219742E00E94DD0681EA92E00E9471
:2027A000DB0625966CAD7DAD8EAD9FAD259742E00E94DD068BEB92E00E94CD0682EC92E013
:2027C0000E94DB066D897E898F89988D42E00E94DD0680ED92E00E94CD068CE591E00E94BD
:2027E000CD0664EF71E080E090E00E94FF002114310409F494CE0E949D01882309F48FCEE3
:202800000E9400008CCE86E692E05ACE8DE692E057CE83E792E054CE89E792E051CE8FE737
:2028200092E04ECE85E892E04BCE8091600490916104188A198A1A8A1B8A9A8389831C82C2
:202840001B821A8785E790E098878F831B861987CE0101967C010E94400968367105810584
:20286000910509F004CE40E050E0BA0182E494E00E94B20C882309F4FACD8AEB91E00E94BB
:20288000CD068091600490916104188A198A1A8A1B8A9A8389831C821B821A87ECE1AE2E2E
:2028A000B12CB886AF821B861987FEA2EDA2F2E0DF2EDFA203E008A742E050E060E070E088
:2028C000CE0185960E94710989EC91E00E94DB068091600490916104188A198A1A8A1B8A00
:2028E0009A8389831C821B821A87B886AF821B861987FEA2EDA2DFA208A7CE0185960E9438
:20290000C8096130710509F4C2CD08F4BBCD6230710509F4BFCD6330710509F4BECD80919C
:20292000600490916104188A198A1A8A1B8A9A8389831C821B82FF24F394FA865BE1A52E82
:20294000B12CB886AF821B86F9868E010F5F1F4F1EA30DA362E0D62EDFA273E0E72EE8A672
:2029600041E050E060E070E0CE0185960E9471098BEF91E00E94DB06809160049091610407
:20298000188A198A1A8A1B8A9A8389831C821B82FA86B886AF821B86F9861EA30DA3DFA244
:2029A000E8A6CE0185960E94C8096130710509F47CCD08F475CD6230710509F479CD6330C3
:2029C000710509F478CD8091600490916104188A198A1A8A1B8A9A8389831C821B82FF242F
:2029E000F394FA863AE1C32ED12CD886CF821B86F9861EA30DA343E0E42EEFA218A644E0DF
:202A000050E060E070E0CE0185960E94710985E492E00E94DB068091600490916104188AF5
:202A2000198A1A8A1B8A9A8389831C821B82FA86D886CF821B86F9861EA30DA3EFA218A637
:202A4000CE0185960E94C809FB016730710508F039CDE35DFA4E0C94C8175E12031406146A
:202A600009140C140F14121488E591E090934304809342048091620490916304009739F070
:202A8000DC01ED91FC910280F381E02D09958091640490916504009739F0DC01ED91FC9102
:202AA0000280F381E02D09958091660490916704009739F0DC01ED91FC910280F381E02DC3
:202AC00009958091600490916104009711F00C946A1808955058BB27AA270E9482150C94D2
:202AE000F5160E94E71638F00E94EE1620F039F49F3F19F426F40C94E4160EF4E095E7FB29
:202B00000C94DE16E92F0E94061758F3BA17620773078407950720F079F4A6F50C9428172D
:202B20000EF4E0950B2EBA2FA02D0B01B90190010C01CA01A0011124FF27591B99F0593F6F
:202B400050F4503E68F11A16F040A22F232F342F4427585FF3CF469537952795A795F040B1
:202B60005395C9F77EF41F16BA0B620B730B840BBAF09150A1F0FF0FBB1F661F771F881F01
:202B8000C2F70EC0BA0F621F731F841F48F4879577956795B795F7959E3F08F0B0CF93957B
:202BA000880F08F09927EE0F9795879508950E94BA1608F481E008950E94F0150C94F51626
:202BC0000E94EE1658F00E94E71640F029F45F3F29F00C94DE1651110C9429170C94E416F4
:202BE0000E94061768F39923B1F3552391F3951B550BBB27AA2762177307840738F09F5FF8
:202C00005F4F220F331F441FAA1FA9F335D00E2E3AF0E0E832D091505040E695001CCAF7BD
:202C20002BD0FE2F29D0660F771F881FBB1F261737074807AB07B0E809F0BB0B802DBF01A7
:202C4000FF2793585F4F3AF09E3F510578F00C94DE160C9429175F3FE4F3983ED4F386954F
:202C600077956795B795F7959F5FC9F7880F911D9695879597F90895E1E0660F771F881F8A
:202C8000BB1F621773078407BA0720F0621B730B840BBA0BEE1F88F7E09508950E940E1757
:202CA00088F09F5798F0B92F9927B751B0F0E1F0660F771F881F991F1AF0BA95C9F714C0A6
:202CC000B13091F00E942817B1E008950C942817672F782F8827B85F39F0B93FCCF38695A6
:202CE00077956795B395D9F73EF490958095709561957F4F8F4F9F4F0895E89409C097FB3F
:202D00003EF490958095709561957F4F8F4F9F4F9923A9F0F92F96E9BB279395F695879505
:202D200077956795B795F111F8CFFAF4BB0F11F460FF1BC06F5F7F4F8F4F9F4F16C0882396
:202D400011F096E911C0772321F09EE8872F762F05C0662371F096E8862F70E060E02AF00A
:202D60009A95660F771F881FDAF7880F9695879597F90895990F0008550FAA0BE0E8FEEF18
:202D800016161706E807F907C0F012161306E407F50798F0621B730B840B950B39F40A2614
:202DA00061F0232B242B252B21F408950A2609F4A140A6958FEF811D811D089597F99F67ED
:202DC00080E870E060E008959FEF80EC089500240A941616170618060906089500240A9430
:202DE00012161306140605060895092E0394000C11F4882352F0BB0F40F4BF2B11F460FFB8
:202E000004C06F5F7F4F8F4F9F4F089557FD9058440F551F59F05F3F71F04795880F97FB99
:202E2000991F61F09F3F79F087950895121613061406551FF2CF4695F1DF08C0161617063D
:202E40001806991FF1CF86957105610508940895E894BB2766277727CB0197F908950E9488
:202E6000BA1608F48FEF08950E9447170C94F5160E94E71638F00E94EE1620F0952311F08A
:202E80000C94DE160C94E41611240C9429170E94061770F3959FC1F3950F50E0551F629F9C
:202EA000F001729FBB27F00DB11D639FAA27F00DB11DAA1F649F6627B00DA11D661F829F4B
:202EC0002227B00DA11D621F739FB00DA11D621F839FA00D611D221F749F3327A00D611D79
:202EE000231F849F600D211D822F762F6A2F11249F5750409AF0F1F088234AF0EE0FFF1FAD
:202F0000BB1F661F771F881F91505040A9F79E3F510580F00C94DE160C9429175F3FE4F378
:202F2000983ED4F3869577956795B795F795E7959F5FC1F7FE2B880F911D9695879597F982
:202F400008950E94BA16880B990B0895A1E21A2EAA1BBB1BFD010DC0AA1FBB1FEE1FFF1F8F
:202F6000A217B307E407F50720F0A21BB30BE40BF50B661F771F881F991F1A9469F7609500
:202F80007095809590959B01AC01BD01CF010895EE0FFF1F0590F491E02D09940F931F934B
:202FA000CF93DF938230910510F482E090E0E0917E04F0917F0430E020E0B0E0A0E0309741
:202FC00099F42115310509F44AC0281B390B24303105D8F58A819B816115710589F1FB018A
:202FE00093838283FE0111C0408151810281138148175907E0F04817590799F4109761F069
:2030000012960C93129713961C933296CF01DF91CF911F910F91089500937E0410937F04D8
:20302000F4CF2115310551F04217530738F0A901DB019A01BD01DF01F801C1CFEF01F9CF45
:2030400090937F0480937E04CDCFFE01E20FF31F819391932250310939832883D7CF2091F5
:203060007C0430917D04232B41F4209102013091030130937D0420937C04209100013091A8
:2030800001012115310541F42DB73EB74091040150910501241B350BE0917C04F0917D0485
:2030A000E217F307A0F42E1B3F0B2817390778F0AC014E5F5F4F2417350748F04E0F5F1F7D
:2030C00050937D0440937C04819391939FCFF0E0E0E09CCFCF93DF930097E9F0FC0132978E
:2030E00013821282A0917E04B0917F04ED0130E020E01097A1F420813181820F931F2091AF
:203100007C0430917D042817390709F061C0F0937D04E0937C04DF91CF910895EA01CE1720
:20312000DF07E8F54A815B819E0141155105B1F7E901FB83EA8349915991C40FD51FEC17CF
:20314000FD0761F4808191810296840F951FE90199838883828193819B838A83F0E0E0E041
:2031600012968D919C9113970097B9F52D913C911197CD010296820F931F20917C0430919F
:203180007D042817390739F6309751F510927F0410927E04B0937D04A0937C04BCCFD38352
:2031A000C28340815181840F951FC817D90761F44E5F5F4F88819981480F591F51834083F8
:2031C0008A819B81938382832115310509F0B0CFF0937F04E0937E049ECFFD01DC01C0CFF7
:2031E00013821282D7CFFB01DC014150504048F001900D920020C9F701C01D92415050402D
:20320000E0F7089510E0C8E5D0E004C0FE010E94C8172196C935D107C9F7F894FFCF000002
:2032200080048000000000007A06AE0C7B063A0C0D0F000000007A06B00C7B06C40BC20E11
:20324000000000007A06AC0C7B06770B730E00000000D30133016001200291016F018301A1
:2032600000000000ED03C0031C049603B903A603970300000000B20C0D0A006E616E006968
:203280006E66006F7666004D5055363035305F54004D5055363035305F41004D50553630EA
:2032A00035305F47004164616672756974204D505536303530207465737421004661696C79
:2032C000656420746F2066696E64204D5055363035302063686970004D50553630353020E3
:2032E000466F756E642100416363656C65726F6D657465722072616E676520736574207449
:203300006F3A20002B2D3247002B2D3447002B2D3847002B2D313647004779726F207261CF
:203320006E67652073657420746F3A20002B2D20323530206465672F73002B2D203530307C
:20334000206465672F73002B2D2031303030206465672F73002B2D203230303020646567C6
:203360002F730046696C7465722062616E6477696474682073657420746F3A20003236300F
:2033800020487A0031383420487A00393420487A00343420487A00323120487A003130206D
:2033A000487A003520487A00416363656C65726174696F6E20583A20002C20593A20002C6D
:2033C000205A3A2000206D2F735E3200526F746174696F6E20583A2000207261642F73003F
:2033E00054656D70657261747572653A2000206465674300EF93FF93E0910201F091030145
:203400000995FF91EF91BF91AF919F918F917F916F915F914F913F912F910F900FBE0F90A3
:203420001F9018951F920F920FB60F9211242F933F934F935F936F937F938F939F93AF9331
:20344000BF93EF93FF93E0910001F09101010995FF91EF91BF91AF919F918F917F916F9173
:203460005F914F913F912F910F900FBE0F901F9018951F920F920FB60F9211242F933F9304
:203480004F935F936F937F938F939F93AF93BF93EF93FF938CE792E00E94FB08FF91EF91AE
:2034A000BF91AF919F918F917F916F915F914F913F912F910F900FBE0F901F9018951F92A4
:2034C0000F920FB60F9211242F938F939F93EF93FF93E0918C02F0918D028081E091920271
:2034E000F091930282FD1BC09081809195028F5F8F7320919602821741F0E0919502F0E0C8
:20350000E458FD4F958F80939502FF91EF919F918F912F910F900FBE0F901F9018958081CD
:20352000F4CF1F920F920FB60F9211242F933F934F935F936F937F938F939F93AF93BF9377
:20354000EF93FF938091B900887F803609F44AC0F0F5883209F4A7C018F5803109F49BC0B0
:20356000B8F4882309F4F9C0883009F494C0FF91EF91BF91AF919F918F917F916F915F9145
:203580004F913F912F910F900FBE0F901F901895883109F488C0803251F78093500214C023
:2035A000803409F49DC040F48033B9F38833F9F68093500285ECB0C0803509F485C08835C6
:2035C00009F496C0883499F60E94D916D0CF883909F48CC038F5883729F050F4883611F00B
:2035E000803729F683E0809352021092F70157C0883809F47BC0803919F0803809F0B7CF89
:203600008091F701803208F071C0E091F70181E08E0F8093F7018091BB00F0E0E952FE4F30
:2036200080833DC0803B39F0E0F4803A09F479C0883A09F09CCF84E0809352021092D60178
:203640001092D501E091FB01F091FC0109958091D50181110FC081E08093D5011092B5017F
:2036600009C0803C09F4A6CF883C09F4A3CF883B09F07DCFE091D60181E08E0F8093D601E8
:20368000F0E0EB54FE4F80818093BB009091D6018091D50129C080912D028093BB0085ECB8
:2036A0008093BC0064CF90914F0280914E02981758F5E0914F0281E08E0F80934F02F0E045
:2036C000E25DFD4F8081E9CFE0914F0281E08E0F80934F028091BB00F0E0E25DFD4F808358
:2036E00090914F0280914E029817C8F285E8D8CFE0914F0281E08E0F80934F028091BB008A
:20370000F0E0E25DFD4F80838091510281115CCF81E080932C0284EA8093BC001092520255
:2037200026CF85EC8093BC00109252028091F701803230F4E091F701F0E0E952FE4F10822C
:203740006091F70170E0E091F901F091FA0187ED91E009951092F7010ACF1092500234CF5C
:20376000ECE7F2E01382128288EE93E0A0E0B0E084839583A683B78320E131E03183208397
:2037800025EC30E03587248724EC30E03787268720EC30E0318B208B21EC30E0338B228B0B
:2037A00022EC30E0358B248B26EC30E0378B268B118E128E138E148EE9E1F3E0138212829F
:2037C00084839583A683B78382E291E091838083E6E2F3E0158288E0868317828BEC97E051
:2037E0009587848780EE9EE2A5E6B2E4838F948FA58FB68F81E0878F10927003109288032C
:203800001092DA031092DB031092DC031092DD031092DE031092DF031092E0031092E10394
:203820001092E2031092E3031092E4031092E5031092EA031092EB031092EC031092ED0324
:203840001092EE031092EF031092F0031092F1031092F2031092F3031092F4031092F503B4
:203860001092F6031092F7031092F8031092F9031092FA031092FB031092FC031092FD0354
:203880001092FE031092FF03109200041092010486E0828F88E6808380E28093850380E14E
:2038A000809325030895CF93DF93CDB7DEB7A2970FB6F894DEBF0FBECDBF789484B582609C
:2038C00084BD84B5816084BD85B5826085BD85B5816085BD80916E00816080936E0010920E
:2038E000810080918100826080938100809181008160809381008091800081608093800033
:203900008091B10084608093B1008091B00081608093B00080917A00846080937A008091CB
:203920007A00826080937A0080917A00816080937A0080917A00806880937A001092C10042
:20394000E0918C02F0918D0282E08083E0918802F09189021082E0918A02F0918B0280E1EE
:20396000808310929402E0919002F091910286E08083E0918E02F0918F0280818061808394
:20398000E0918E02F0918F02808188608083E0918E02F0918F02808180688083E0918E0228
:2039A000F0918F0280818F7D808386E192E00E941C0D10920B0210920A0210925902109245
:2039C0007B020E94CC098AE798E09093FC018093FB018BE798E09093FA018093F9018CE05A
:2039E0008093B8001092F80188EB9BE0A0E0B0E08093540290935502A0935602B093570259
:203A000081E080935302109230038093310310921A0483E180931B0480917203811104C08F
:203A200082E793E00E94970F80917203883308F0C3C08DEF91E00E941C0D81E00E94BF121A
:203A400083E991E00E94A00D00E010E82AE433E44DEC5CEC6CE27FE38BE30E9439108091A2
:203A60007203811104C082E793E00E94970F809172036EE174E0883308F0A1C086E00E9412
:203A8000220F60E274E088E00E94220F62E274E08AE00E94220F0E94180D81E00E94BF12B4
:203AA00084EA91E00E94A00D00E010E82AE433E44DEC5CEC6CE27FE383E40E94391064E212
:203AC00074E083E10E94220F66E274E085E10E94220F68E274E087E10E94220F0E94180DE6
:203AE00080E00E94BF1281E197E1909333038093320390E0692E90E0792E2FB7F8948091D7
:203B0000020290910302A0910402B09105022FBF4091FD015091FE016091FF01709100026B
:203B2000841B950BA60BB70B83369105A105B105B8F1909085030E9423081B012C01C92CCC
:203B4000D12CBE016F5F7F4F82E70E94220FE980FA80CE14DF040CF062C029ECE216F10409
:203B6000D4F101E022E041E06AE686E293E00E94CE0FBE016F5F7F4F82E70E94220FE980D2
:203B8000FA80E114F10409F04EC00E9423086219730984099509693F7A428105910548F310
:203BA0006114710409F4A9CF0E94E708882309F4A4CF0E940000A1CF84EE91E03CCF87E78C
:203BC0000E94220F60E274E08AE70E94220F62E274E08DE75ECFBE016F5D7F4F82E70E949B
:203BE000220FE9A0FAA0CE14DF04CCF4EC18FD08570181E2E816F1041CF080E2A82EB12C14
:203C00008E010F5F1F4F2A2D44E76091260386E293E00E942C0FEA18FB0851F7DCCFE114F8
:203C2000F10409F4BDCF0E9423086219730984099509693F7A428105910508F0B1CFEC141F
:203C4000FD0409F07ECF8E010F5F1F4F292D44E76091260386E293E00E942C0F0E94230892
:203C60006093890370938A0380938B0390938C0369817A818B819C810E94B8246093A503BB
:203C80007093A6038093A7039093A8036D817E818F8198850E94B8246093A9037093AA0306
:203CA0008093AB039093AC0369857A858B859C850E94B8246093AD037093AE038093AF03B9
:203CC0009093B0036D857E858F8598890E94B8246093B1037093B2038093B3039093B40364
:203CE00089899A8998278927982790939403809393038B899C8998278927982790939603DB
:203D0000809395038D899E8998278927982790939803809397038F89988D982789279827B7
:203D200090938E0380938D03898D9A8D9827892798279093900380938F038B8D9C8D982766
:203D4000892798279093920380939103E0913203F0913303309739F045EA53E063E973E047
:203D60008DE893E009952FB7F8948091020290910302A0910402B09105022FBF8093FD0192
:203D80009093FE01A093FF01B093000209CFEF920F931F93CF93DF93E80134E047FD34E1B2
:203DA000042E000C550B57FF03C0519541955109E32E022F242FAE010E94E51ECE01DF910E
:203DC000CF911F910F91EF900895A9E0B0E0EBEEFEE10C9422216A01F22EB02E102FFBE3DD
:203DE000AF2EA01608F41BE31F5F012F27E0AE014F5F5F4F0E944420BC018981982F9970D9
:203E0000913009F43FC09BE2E1FC04C09E2D9170E0FC3AC05E2D5071E82FE87083FF46C0E2
:203E200084E0911101C083E0EF2DE81B8F1508F0E0E0D6018E2F20E2552351F1992329F0B8
:203E4000D6019C93C60101966C0196012D5F3F4FE2FE24C08EE4D6018C9391E411969C9369
:203E6000119712968C93D9018E2F90E281111BC0E20FF32FF11D10828EEF9FEF2996ECE014
:203E80000C943E219DE2C6CF90E2C4CF2D9381508111FCCFCE0ED11CE0E0D0CF8EE6D601A9
:203EA0008C9391E6DBCF9D938150E0CF482F447082FF3DC084E0911101C083E08F1510F497
:203EC000EF2DE81BD6018E2F20E2552309F1992329F0D6019C93C60101966C0196012D5FF2
:203EE0003F4FE2FE1BC089E4D6018C938EE411968C93119786E412968C93D9018E2F90E2FC
:203F0000882309F4B5CF9D938150FACF2D9381508111FCCFCE0ED11CE0E0D9CF89E6D60146
:203F20008C938EE611968C93119786E6E4CF9B0177FF02C030E020E0A1E0B0E0911102C008
:203F4000B0E0A0E0F9013196AE0FBF1F8B2C912CBB2009F461C05401EFEFAE1ABE0AAA0D0E
:203F6000BB1DFA161B0619F014F04F2D4A1B511188C0E3FC59C07601A42FB0E2A1114FC00B
:203F8000C40ED11C992309F45BC040E0D6011196F60190836D01552309F448C0012F060FB6
:203FA0009A81582F507184FF03C0913309F4015010160CF047C0093008F008E0EEE2FE2E08
:203FC0005B01A01AB10885019194819491082F3F320729F4D601FC92F60131966F016217E9
:203FE000730794F1021713077CF5DB01A21BB30BAA24A394B12CAC0EBD1EAA0DBB1D11961A
:204000008C9121503109D601119628153905F4F0F60180836D01DBCFB12CA12CA0CFF701D8
:20402000B1937F01A150AACF9111B0CFD601942F50E302C05D9391509111FCCFC40ED11CA5
:2040400040E0ACCF01E0BACF80E3DBCF6217730731F4963388F4953311F4552369F0F6015C
:204060008083FD01842F90E2811108C0A40FB11D1C9290E080E002CF81E3F1CF91938150D7
:20408000F3CF911183CF8ACF283008F027E03327DA01990F311D87FD9160009661057105A8
:2040A00039F432602E5F3D9330E32A95E1F708959F3F30F080387105610509F03C5F3C5FDC
:2040C0003D93913008F08068911DDF93CF931F930F93FF92EF92192F987F9695E92F9695BA
:2040E0009695E90FFF27E051FF4F99273327EE24FF24A701E70105900894079428F4360FEC
:20410000E71EF81E491F511D660F771F881F991F0694A1F70590079428F4E70EF81E491F53
:20412000561FC11D770F881F991F661F0694A1F70590079428F4F80E491F561FC71FD11D8D
:20414000880F991F661F771F0694A1F70590079420F4490F561FC71FD81F990F661F771F12
:20416000881F0694A9F784911095177041F0D695C79557954795F794E7941A95C1F7E6E921
:20418000F0E068941590159135916591959105907FE27395E118F10A430B560BC90BD009D8
:2041A000C0F7E10CF11E431F561FC91FD01D7EF4703311F48A95E6CFE894015030F0080FAE
:2041C0000AF40027021708F4202F2395022F7A3328F079E37D932A95E9F710C07D932A95FE
:2041E00089F6069497956795379517951794E118F10A430B560BC90BD00998F023957E91BC
:2042000073957A3308F070E37C932013B8F77E9170617D9330F0839571E37D9370E32A950F
:20422000E1F71124EF90FF900F911F91CF91DF91992787FD909508952F923F924F925F92D9
:204240006F927F928F929F92AF92BF92CF92DF92EF92FF920F931F93CF93DF93CDB7DEB743
:20426000CA1BDB0B0FB6F894DEBF0FBECDBF09942A88398848885F846E847D848C849B8447
:20428000AA84B984C884DF80EE80FD800C811B81AA81B981CE0FD11D0FB6F894DEBF0FBE09
:2042A000CDBFED010895A1E21A2EAA1BBB1BFD010DC0AA1FBB1FEE1FFF1FA217B307E4078A
:2042C000F50720F0A21BB30BE40BF50B661F771F881F991F1A9469F76095709580959095AC
:2042E0009B01AC01BD01CF0108955058BB27AA270E948D210C94A0230E94922338F00E941B
:20430000992320F039F49F3F19F426F40C9468230EF4E095E7FB0C946223E92F0E94B12368
:2043200058F3BA17620773078407950720F079F4A6F50C94D3230EF4E0950B2EBA2FA02D43
:204340000B01B90190010C01CA01A0011124FF27591B99F0593F50F4503E68F11A16F04012
:20436000A22F232F342F4427585FF3CF469537952795A795F0405395C9F77EF41F16BA0BF0
:20438000620B730B840BBAF09150A1F0FF0FBB1F661F771F881FC2F70EC0BA0F621F731F7A
:2043A000841F48F4879577956795B795F7959E3F08F0B0CF9395880F08F09927EE0F97952E
:2043C000879508950E94922360F080E891E009F49EEF0E94992328F040E851E071F45EEF99
:2043E0000CC00C9468230C94D323E92FE0780E94B12340F3092E052AB1F326173707480743
:20440000590738F00E2E07F8E02569F0E025E0640AC0EF6307F8009407FADB01B9019D014E
:20442000DC01CA01AD01EF930E9470220E94A0230E9425225F91552339F02BED3FE049E42D
:2044400050FD49EC0C9476210895DF93DD27B92FBF7740E85FE31616170648075B0718F402
:20446000D92F0E94DF239F938F937F936F930E949A24E8E6F0E00E946B230E94A0232F91D5
:204480003F914F915F910E94FA23DD2351F09058A2EA2AED3FE049EC5FE3D0785D270E94ED
:2044A0008D21DF910C94A0230E943E2308F481E008950E946D220C94A0230E94992358F044
:2044C0000E94922340F029F45F3F29F00C94622351110C94D4230C9468230E94B12368F367
:2044E0009923B1F3552391F3951B550BBB27AA2762177307840738F09F5F5F4F220F331FC8
:20450000441FAA1FA9F335D00E2E3AF0E0E832D091505040E695001CCAF72BD0FE2F29D0B4
:20452000660F771F881FBB1F261737074807AB07B0E809F0BB0B802DBF01FF2793585F4FF0
:204540003AF09E3F510578F00C9462230C94D4235F3FE4F3983ED4F3869577956795B79559
:20456000F7959F5FC9F7880F911D9695879597F90895E1E0660F771F881FBB1F62177307F8
:204580008407BA0720F0621B730B840BBA0BEE1F88F7E09508950E94D2226894B1110C94DE
:2045A000D42308950E94B92388F09F5798F0B92F9927B751B0F0E1F0660F771F881F991F68
:2045C0001AF0BA95C9F714C0B13091F00E94D323B1E008950C94D323672F782F8827B85F2D
:2045E00039F0B93FCCF3869577956795B395D9F73EF490958095709561957F4F8F4F9F4F9F
:204600000895E89409C097FB3EF490958095709561957F4F8F4F9F4F9923A9F0F92F96E929
:20462000BB279395F695879577956795B795F111F8CFFAF4BB0F11F460FF1BC06F5F7F4F19
:204640008F4F9F4F16C0882311F096E911C0772321F09EE8872F762F05C0662371F096E803
:20466000862F70E060E02AF09A95660F771F881FDAF7880F9695879597F90895990F00086E
:20468000550FAA0BE0E8FEEF16161706E807F907C0F012161306E407F50798F0621B730BB9
:2046A000840B950B39F40A2661F0232B242B252B21F408950A2609F4A140A6958FEF811D19
:2046C000811D089597F99F6780E870E060E008959FEF80EC0895DF93CF931F930F93FF9224
:2046E000EF92DF927B018C01689406C0DA2EEF010E94FA23FE01E894A59125913591459143
:204700005591A6F3EF010E948D21FE019701A801DA9469F7DF90EF90FF900F911F91CF919F
:20472000DF91089500240A941616170618060906089500240A9412161306140605060895D2
:20474000092E0394000C11F4882352F0BB0F40F4BF2B11F460FF04C06F5F7F4F8F4F9F4F15
:20476000089557FD9058440F551F59F05F3F71F04795880F97FB991F61F09F3F79F08795E0
:204780000895121613061406551FF2CF4695F1DF08C0161617061806991FF1CF8695710509
:2047A000610508940895E894BB2766277727CB0197F908950E943E2308F48FEF08959B0122
:2047C000AC0160E070E080E89FE30C9459220E94FA230C94A0230E94922338F00E94992398
:2047E00020F0952311F00C9462230C94682311240C94D4230E94B12370F3959FC1F3950F6F
:2048000050E0551F629FF001729FBB27F00DB11D639FAA27F00DB11DAA1F649F6627B00D90
:20482000A11D661F829F2227B00DA11D621F739FB00DA11D621F839FA00D611D221F749F20
:204840003327A00D611D231F849F600D211D822F762F6A2F11249F5750409AF0F1F0882303
:204860004AF0EE0FFF1FBB1F661F771F881F91505040A9F79E3F510580F00C9462230C94CE
:20488000D4235F3FE4F3983ED4F3869577956795B795F795E7959F5FC1F7FE2B880F911D74
:2048A0009695879597F9089519F416F40C9468230C94A3240E94B923B8F39923C9F3B6F391
:2048C0009F57550B87FF0E94B1240024A0E640EA900180585695979528F4805C660F771F2E
:2048E000881F20F026173707480730F4621B730B840B202931294A2BA695179407942025AB
:2049000031254A2758F7660F771F881F20F026173707480730F4620B730B840B200D311DDC
:20492000411DA09581F7B901842F9158880F9695879508959B01AC010C94E7230E943E23A5
:20494000880B990B08959F3F31F0915020F4879577956795B795880F911D9695879597F903
:20496000089591505040660F771F881FD2F708956927962769277827872778270895EE0FAE
:20498000FF1F0590F491E02D0994F894FFCF7C087C08A3A3A3A3C0C2C4C6000000001D0915
:2049A0007D08AA088509DB08B908CD08000000001A0CED0BA60CCA0BCC07DA0BCB0B0D0A6F
:2049C000006E616E00696E66006F766600466F756E64204D50552061743A20307800526556
:2049E000736574204F66667365747300536574204F666673657473002C202000205769748B
:204A0000682057686F416D49203D203078006D61675F73656E735F61646A20323A002C2011
:204A20000043616C69627261746520416363656C200043616C696272617465204779726F8F
:204A40002000FFFFFFFFFFFFFFFFFFFFFFFFFFFFFFFFFFFFFFFFFFFFFFFFFFFFFFFFFFFF54
:204A6000FFFFFFFFFFFFFFFFFFFFFFFFFFFFFFFFFFFFFFFFFFFFFFFFFFFFFFFFFFFFFFFF56
:204A80008F4F9F4F0895E89409C097FB3EF490958095709561957F4F8F4F9F4F9923A9F080
:204AA000F92F96E9BB279395F695879577956795B795F111F8CFFAF4BB0F11F460FF1BC08A
:204AC0006F5F7F4F8F4F9F4F16C0882311F096E911C0772321F09EE8872F762F05C06623C2
:204AE00071F096E8862F70E060E02AF09A95660F771F881FDAF7880F9695879597F90895BB
:204B0000990F0008550FAA0BE0E8FEEF16161706E807F907C0F012161306E407F50798F07F
:204B2000621B730B840B950B39F40A2661F0232B242B252B21F408950A2609F4A140A695B5
:204B40008FEF811D811D089597F99F6780E870E060E008959FEF80EC0895DF93CF931F93B6
:204B60000F93FF92EF92DF927B018C01689406C0DA2EEF010E943C26FE01E894A5912591E2
:204B8000359145915591A6F3EF010E94CF23FE019701A801DA9469F7DF90EF90FF900F914B
:204BA0001F91CF91DF91089500240A941616170618060906089500240A94121613061406E6
:204BC00005060895092E0394000C11F4882352F0BB0F40F4BF2B11F460FF04C06F5F7F4FB5
:204BE0008F4F9F4F089557FD9058440F551F59F05F3F71F04795880F97FB991F61F09F3F15
:204C000079F087950895121613061406551FF2CF4695F1DF08C0161617061806991FF1CF90
:204C200086957105610508940895E894BB2766277727CB0197F908950E94802508F48FEF01
:204C400008959B01AC0160E070E080E89FE30C949B240E943C260C94E2250E94D42538F027
:204C60000E94DB2520F0952311F00C94A4250C94AA2511240C9416260E94F32570F3959F8F
:204C8000C1F3950F50E0551F629FF001729FBB27F00DB11D639FAA27F00DB11DAA1F649FFE
:204CA0006627B00DA11D661F829F2227B00DA11D621F739FB00DA11D621F839FA00D611DA6
:204CC000221F749F3327A00D611D231F849F600D211D822F762F6A2F11249F5750409AF0B7
:204CE000F1F088234AF0EE0FFF1FBB1F661F771F881F91505040A9F79E3F510580F00C94E3
:204D0000A4250C9416265F3FE4F3983ED4F3869577956795B795F795E7959F5FC1F7FE2B86
:204D2000880F911D9695879597F9089519F416F40C94AA250C94E5260E94FB25B8F3992360
:204D4000C9F3B6F39F57550B87FF0E94F3260024A0E640EA900180585695979528F4805C0B
:204D6000660F771F881F20F026173707480730F4621B730B840B202931294A2BA6951794FB
:204D80000794202531254A2758F7660F771F881F20F026173707480730F4620B730B840BF3
:204DA000200D311D411DA09581F7B901842F9158880F9695879508959B01AC010C94292664
:204DC0000E948025880B990B08959F3F31F0915020F4879577956795B795880F911D9695E4
:204DE000879597F9089591505040660F771F881FD2F7089569279627692778278727782718
:204E00000895EE0FFF1F0590F491E02D0994F894FFCF78087808A3A3A3A3C0C2C4C6000024
:204E2000000019097908A6088109D708B508C90800000000160CE90BA20CC60BC807D60BE5
:204E4000C70B0D0A006E616E00696E66006F766600466F756E64204D50552061743A203017
:204E600078005265736574204F66667365747300536574204F666673657473002C2020002B
:204E800020576974682057686F416D49203D203078006D61675F73656E735F61646A2032BF
:204EA0003A002C200043616C69627261746520416363656C200043616C6962726174652026
:204EC0004779726F2000FFFFFFFFFFFFFFFFFFFFFFFFFFFFFFFFFFFFFFFFFFFFFFFFFFFF2B
:204EE000FFFFFFFFFFFFFFFFFFFFFFFFFFFFFFFFFFFFFFFFFFFFFFFFFFFFFFFFFFFFFFFFD2
:204F0000E50491E09093E6048FB7F8944091EF045091F0046091F1047091F2048FBF809183
:204F2000E2049091E304A091E404B091E5044996A11DB11D84179507A607B707E8F58AE7E5
:204F400094E00E9468056091C4067091C5068091C6069091C7060E94630682E094E00E94F9
:204F600068056091C0067091C1068091C2069091C3060E94630682E094E00E9468056091A1
:204F8000BC067091BD068091BE069091BF060E9456062FB7F8948091EF049091F004A09116
:204FA000F104B091F2042FBF8093E2049093E304A093E404B093E504A0E0B0E0AB2B11F4A2
:204FC0000C9469140E94C601882311F40C9469140E9400000C9469148090B8069090B90612
:204FE000A090BA06B090BB062091B4063091B5064091B6065091B7062B8F3C8F4D8F5E8F60
:205000004090B0065090B1066090B2067090B3068091AC069091AD06A091AE06B091AF06A0
:205020008F8F98A3A9A3BAA39C01AD01CD01B9010E947D2C2B966CAF7DAF8EAF9FAF2B97FB
:20504000A3019201C301B2010E947D2C2F966CAF7DAF8EAF9FAF2F972B8D3C8D4D8D5E8DB4
:20506000CA01B9010E947D2C63966CAF7DAF8EAF9FAF6397A5019401C501B4010E947D2C9A
:2050800067966CAF7DAF8EAF9FAF67972F8D38A149A15AA1C301B2010E947D2C6B017C011E
:2050A0002B8D3C8D4D8D5E8DC501B4010E947D2C9B01AC01C701B6010E94BD299B01AC014B
:2050C0000E94BD296BA37CA38DA39EA3A3019201C501B4010E947D2C6B017C012F8D38A12F
:2050E00049A15AA16B8D7C8D8D8D9E8D0E947D2C9B01AC01C701B6010E94BC299B01AC01A2
:205100000E94BD296BAB7CAB8DAB9EAB2F962CAD3DAD4EAD5FAD2F972B966CAD7DAD8EADB5
:205120009FAD2B970E94BC2963962CAD3DAD4EAD5FAD63970E94BC2967962CAD3DAD4EADDB
:205140005FAD67970E94BD2927966CAF7DAF8EAF9FAF27979B01AC016BA17CA18DA19EA191
:205160000E94572A6B017C016BA97CA98DA99EA90E94292A6F966CAF7DAF8EAF9FAF6F979B
:205180002F962CAD3DAD4EAD5FAD2F972B966CAD7DAD8EAD9FAD2B970E94BD2963962CAD13
:2051A0003DAD4EAD5FAD63970E94BC2967962CAD3DAD4EAD5FAD67970E94BC292B966CAF55
:2051C0007DAF8EAF9FAF2B97A30192016B8D7C8D8D8D9E8D0E947D2C2B013C012F8D38A190
:2051E00049A15AA1C501B4010E947D2C9B01AC01C301B2010E94BD299B01AC010E94BD29EB
:205200002B962CAD3DAD4EAD5FAD2B970E94572A4B015C0120EE3EE245E652E4C701B60167
:205220000E947D2C6093BC067093BD068093BE069093BF066F966CAD7DAD8EAD9FAD6F9714
:20524000905820EE3EE245E652E40E947D2C6093C0067093C1068093C2069093C30620EE34
:205260003EE245E652E4C501B4010E947D2C209166063091670640916806509169060E946B
:20528000BD296B017C0120E030E044E353E40E94702C87FD11C020E030E044EB53E4C70100
:2052A000B6010E94BC296093C4067093C5068093C6069093C70612C020E030E044E353EC0E
:2052C000C701B6010E94B62A87FD4DC0C092C406D092C506E092C606F092C7062BA13CA1BD
:2052E0004DA15EA1609188067091890680918A0690918B060E94BD296093C8067093C90644
:205300008093CA069093CB062BA93CA94DA95EA960918C0670918D0680918E0690918F068E
:205320000E94BD296093CC067093CD068093CE069093CF0627962CAD3DAD4EAD5FAD279726
:20534000609190067091910680919206909193060E94BC296093D0067093D1068093D206B6
:205360009093D306B7CD20E030E044EB53E4C701B6010E94BD2997CF5058BB27AA270E94CD
:20538000D4290C94362C0E94282C38F00E942F2C20F039F49F3F19F426F40C94EA2B0EF4FA
:2053A000E095E7FB0C94E42BE92F0E94472C58F3BA17620773078407950720F079F4A6F57C
:2053C0000C94692C0EF4E0950B2EBA2FA02D0B01B90190010C01CA01A0011124FF27591B93
:2053E00099F0593F50F4503E68F11A16F040A22F232F342F4427585FF3CF46953795279534
:20540000A795F0405395C9F77EF41F16BA0B620B730B840BBAF09150A1F0FF0FBB1F661F09
:20542000771F881FC2F70EC0BA0F621F731F841F48F4879577956795B795F7959E3F08F01C
:20544000B0CF9395880F08F09927EE0F9795879508959F939F77EEE389379E0728F4E8E60C
:20546000F0E00E94142C0CC00E94A02B9058A2EA2AED3FE049EC5FE30E94D4290E94362C7D
:205480000F9007FC905808950E94282C60F080E891E009F49EEF0E942F2C28F040E851E0CE
:2054A00071F45EEF0CC00C94EA2B0C94692CE92FE0780E94472C40F3092E052AB1F3261785
:2054C00037074807590738F00E2E07F8E02569F0E025E0640AC0EF6307F8009407FADB0149
:2054E000B9019D01DC01CA01AD01EF930E94D22A0E94362C0E94872A5F91552339F02BEDDE
:205500003FE049E450FD49EC0C94BD290895DF93DD27B92FBF7740E85FE316161706480704
:205520005B0718F4D92F0E94752C9F938F937F936F930E94302DECE7F0E00E94ED2B0E944C
:20554000362C2F913F914F915F910E94902CDD2351F09058A2EA2AED3FE049EC5FE3D07881
:205560005D270E94D429DF910C94362C0E94C02B08F481E008950E94CF2A0C94362C0E94D0
:205580002F2C58F00E94282C40F029F45F3F29F00C94E42B51110C946A2C0C94EA2B0E94D0
:2055A000472C68F39923B1F3552391F3951B550BBB27AA2762177307840738F09F5F5F4FAC
:2055C000220F331F441FAA1FA9F335D00E2E3AF0E0E832D091505040E695001CCAF72BD087
:2055E000FE2F29D0660F771F881FBB1F261737074807AB07B0E809F0BB0B802DBF01FF2793
:2056000093585F4F3AF09E3F510578F00C94E42B0C946A2C5F3FE4F3983ED4F3869577950E
:205620006795B795F7959F5FC9F7880F911D9695879597F90895E1E0660F771F881FBB1FD2
:20564000621773078407BA0720F0621B730B840BBA0BEE1F88F7E09508950E94342B689411
:20566000B1110C946A2C08950E944F2C88F09F5798F0B92F9927B751B0F0E1F0660F771F56
:20568000881F991F1AF0BA95C9F714C0B13091F00E94692CB1E008950C94692C672F782F85
:2056A0008827B85F39F0B93FCCF3869577956795B395D9F73EF490958095709561957F4FD4
:2056C0008F4F9F4F0895E89409C097FB3EF490958095709561957F4F8F4F9F4F9923A9F034
:2056E000F92F96E9BB279395F695879577956795B795F111F8CFFAF4BB0F11F460FF1BC03E
:205700006F5F7F4F8F4F9F4F16C0882311F096E911C0772321F09EE8872F762F05C0662375
:2057200071F096E8862F70E060E02AF09A95660F771F881FDAF7880F9695879597F908956E
:20574000DF93CF931F930F938B01EC01E9EAF0E00E94ED2B0E94362C9801AE018B01EC0186
:2057600060E070E080E89FE30E94BC290E94F02C9801AE010F911F91CF91DF910C94902CA6
:20578000990F0008550FAA0BE0E8FEEF16161706E807F907C0F012161306E407F50798F0F3
:2057A000621B730B840B950B39F40A2661F0232B242B252B21F408950A2609F4A140A69529
:2057C0008FEF811D811D089597F99F6780E870E060E008959FEF80EC0895DF93CF931F932A
:2057E0000F93FF92EF92DF927B018C01689406C0DA2EEF010E94902CFE01E894A5912591FC
:20580000359145915591A6F3EF010E94D429FE019701A801DA9469F7DF90EF90FF900F91B3
:205820001F91CF91DF9108959F938F937F936F93FF93EF939B01AC010E947D2CEF91FF912B
:205840000E94ED2B2F913F914F915F910C947D2C00240A94161617061806090608950024EC
:205860000A9412161306140605060895092E0394000C11F4882352F0BB0F40F4BF2B11F4CE
:2058800060FF04C06F5F7F4F8F4F9F4F089557FD9058440F551F59F05F3F71F04795880F22
:2058A00097FB991F61F09F3F79F087950895121613061406551FF2CF4695F1DF08C016161E
:2058C00017061806991FF1CF86957105610508940895E894BB2766277727CB0197F9089563
:2058E0000E94C02B08F48FEF08959B01AC0160E070E080E89FE30C94BB2A0E94902C0C94BE
:20590000362C0E94282C38F00E942F2C20F0952311F00C94E42B0C94EA2B11240C946A2C72
:205920000E94472C70F3959FC1F3950F50E0551F629FF001729FBB27F00DB11D639FAA273C
:20594000F00DB11DAA1F649F6627B00DA11D661F829F2227B00DA11D621F739FB00DA11D30
:20596000621F839FA00D611D221F749F3327A00D611D231F849F600D211D822F762F6A2F81
:2059800011249F5750409AF0F1F088234AF0EE0FFF1FBB1F661F771F881F91505040A9F734
:2059A0009E3F510580F00C94E42B0C946A2C5F3FE4F3983ED4F3869577956795B795F79552
:2059C000E7959F5FC1F7FE2B880F911D9695879597F9089519F416F40C94EA2B0C94392DE1
:2059E0000E944F2CB8F39923C9F3B6F39F57550B87FF0E94472D0024A0E640EA900180588F
:205A00005695979528F4805C660F771F881F20F026173707480730F4621B730B840B2029F4
:205A200031294A2BA69517940794202531254A2758F7660F771F881F20F02617370748072F
:205A400030F4620B730B840B200D311D411DA09581F7B901842F9158880F96958795089551
:205A60009B01AC010C947D2C0E94C02B880B990B08959F3F31F0915020F48795779567951B
:205A8000B795880F911D9695879597F9089591505040660F771F881FD2F70895AA1BBB1BDD
:205AA00051E107C0AA1FBB1FA617B70710F0A61BB70B881F991F5A95A9F780959095BC0167
:205AC000CD010895A1E21A2EAA1BBB1BFD010DC0AA1FBB1FEE1FFF1FA217B307E407F50702
:205AE00020F0A21BB30BE40BF50B661F771F881F991F1A9469F760957095809590959B01D4
:205B0000AC01BD01CF010895EE0FFF1F0590F491E02D0994F894FFCF0000803F0000803FF6
:205B20000000803F010001000100018001800180FF7FFF7FFF7F0000FA3B00007A3C0000BB
:205B4000FA3C00007A3D0000803800000039000080390000003A00000000FC015C01890190
:205B60004902BA019801AC0100000000E504B80414058E04B1049E048F040D0A006E616E4B
:205B800000696E66006F766600493243204552524F5220434F4445203A20004D61672046E5
:205BA0006163746F72792043616C6962726174696F6E2056616C7565733A2000582D4178A3
:205BC00069732073656E7369746976697479206F66667365742076616C75652000592D4133
:205BE0007869732073656E7369746976697479206F66667365742076616C756520005A2DDB
:205C0000417869732073656E7369746976697479206F66667365742076616C756520004DB3
:205C20005055393235302057484F20414D2049203D2000414B383936332057484F20414D2B
:205C40002049203D2000416363656C204779726F2063616C6962726174696F6E2077696CB1
:205C60006C20737461727420696E20357365632E00506C65617365206C6561766520746832
:205C80006520646576696365207374696C6C206F6E2074686520666C617420706C616E6572
:205CA0002E00436F756C64206E6F7420636F6E6E65637420746F20414B3839363300436F09
:205CC000756C64206E6F7420636F6E6E65637420746F204D505539323530004D50552063AA
:205CE0006F6E6E656374696F6E206661696C65642E20506C6561736520636865636B2079F3
:205D00006F757220636F6E6E656374696F6E20776974682060636F6E6E656374696F6E5FF2
:205D2000636865636B60206578616D706C652E004D61672063616C6962726174696F6E20EE
:205D400077696C6C20737461727420696E20357365632E00506C656173652057617665205B
:205D600064657669636520696E20612066696775726520656967687420756E74696C206498
:205D80006F6E652E004D61672043616C6962726174696F6E3A2057617665206465766963DE
:205DA0006520696E20612066696775726520656967687420756E74696C20646F6E65210000
:205DC0006D61672078206D696E2F6D61783A006D61672079206D696E2F6D61783A006D6134
:205DE00067207A206D696E2F6D61783A004D61672043616C6962726174696F6E20646F6E91
:205E0000652100414B38393633206D61672062696173657320286D4729002C2000414B3875
:205E2000393633206D6167207363616C6520286D4729003C2063616C6962726174696F6E3A
:205E400020706172616D6574657273203E00616363656C2062696173205B675D3A200067D9
:205E600079726F2062696173205B6465672F735D3A20006D61672062696173205B6D475D85
:205E80003A20006D6167207363616C65205B5D3A20005961772C2050697463682C20526F97
:205EA0006C6C3A200000FFFFFFFFFFFFFFFFFFFFFFFFFFFFFFFFFFFFFFFFFFFFFFFFFFFFCA
:205EC000FFFFFFFFFFFFFFFFFFFFFFFFFFFFFFFFFFFFFFFFFFFFFFFFFFFFFFFFFFFFFFFFE2
:205EE000FFFFFFFFFFFFFFFFFFFFFFFFFFFFFFFFFFFFFFFFFFFFFFFFFFFFFFFFFFFFFFFFC2
:205F0000FFFFFFFFFFFFFFFFFFFFFFFFFFFFFFFFFFFFFFFFFFFFFFFFFFFFFFFFFFFFFFFFA1
:205F2000FFFFFFFFFFFFFFFFFFFFFFFFFFFFFFFFFFFFFFFFFFFFFFFFFFFFFFFFFFFFFFFF81
:207E0000112484B714BE81FFF0D085E08093810082E08093C00088E18093C10086E08093FC
:207E2000C20080E18093C4008EE0C9D0259A86E020E33CEF91E0309385002093840096BBAD
:207E4000B09BFECF1D9AA8958150A9F7CC24DD2488248394B5E0AB2EA1E19A2EF3E0BF2E79
:207E6000A2D0813461F49FD0082FAFD0023811F0013811F484E001C083E08DD089C0823404
:207E800011F484E103C0853419F485E0A6D080C0853579F488D0E82EFF2485D0082F10E0A0
:207EA000102F00270E291F29000F111F8ED068016FC0863521F484E090D080E0DECF84364D
:207EC00009F040C070D06FD0082F6DD080E0C81680E7D80618F4F601B7BEE895C0E0D1E0ED
:207EE00062D089930C17E1F7F0E0CF16F0E7DF0618F0F601B7BEE89568D007B600FCFDCF1A
:207F0000A601A0E0B1E02C9130E011968C91119790E0982F8827822B932B1296FA010C016F
:207F200087BEE89511244E5F5F4FF1E0A038BF0751F7F601A7BEE89507B600FCFDCF97BE85
:207F4000E89526C08437B1F42ED02DD0F82E2BD03CD0F601EF2C8F010F5F1F4F84911BD0B8
:207F6000EA94F801C1F70894C11CD11CFA94CF0CD11C0EC0853739F428D08EE10CD085E9AE
:207F80000AD08FE07ACF813511F488E018D01DD080E101D065CF982F8091C00085FFFCCF0A
:207FA0009093C60008958091C00087FFFCCF8091C00084FD01C0A8958091C6000895E0E68F
:207FC000F0E098E1908380830895EDDF803219F088E0F5DFFFCF84E1DECF1F93182FE3DF47
:207FE0001150E9F7F2DF1F91089580E0E8DFEE27FF270994FFFFFFFFFFFFFFFFFFFF040425
:00000001FF
